:08000000803102288731FD2F39
:100E2E00F5002000181475088731A22787310800B5
:100E3E00F600FE30F500750820009805760887311B
:100E4E00A22787310800FE30F00070083E00B8057A
:100E5E00FE30F0007008200091050800310093016B
:100E6E006030F00070088D040D0811170530F00089
:100E7E0070089304080087315E278731013087316F
:100E8E001F278731023087311F2787310630873180
:100E9E001F2787310C3087311F278731103087315C
:100EAE001F2787312C3087311F27873108000F30DD
:100EBE00F00070083E00CE05FB30F0007008CE0545
:100ECE000F30F000700820009305FB30F000700822
:100EDE0093050F30F00070089805FB30F000700895
:100EEE009805FD30F0007008980508008731352709
:100EFE00873187312A2787318731422787318030E2
:100F0E0087311F27873161308731172787310130AD
:100F1E00F7007708200096060530F8000F30F7002E
:100F2E00F130890B982FF70B982FF80B982F0000A4
:100F3E008E2F80310228F2007208F039F00070080E
:100F4E00F30072080F39F0000330F035FF3E031D39
:100F5E00AC2F7035F1007108F4007308F0007008C2
:100F6E002000980418150630F0003030890BBD2F84
:100F7E00F00BBD2F0032FB30F000700820009805FA
:100F8E000630F0003030890BCA2FF00BCA2F00321A
:100F9E007309F0007008200098058530890BD52F55
:100FAE0000007408F0007008200098041815063030
:100FBE00F0003030890BE12FF00BE12F0032FB30C7
:100FCE00F0007008200098050630F0003030890BD4
:100FDE00EE2FF00BEE2F00327409F0007008200097
:100FEE0098058530890BF92F000008002000873105
:020FFE007D2F45
:020000040001F9
:08000000FF3FFF3FFF3FFF3F00
:0A000E008C173F2F8008FF0FFF3F03
:00000001FF
